:020000040800F2
:100000007804002001010008090100080B01000824
:100010000D0100080F010008110100080000000098
:1000200000000000000000000000000013010008B4
:100030001501000800000000170100081901000860
:100040001B0100081B0100081B010008010A000831
:100050001B0100081B0100081B0100081B01000810
:100060001B0100081B0100081B0100081B01000800
:100070001B0100081B0100081B0100081B010008F0
:100080001B0100081B0100081B0100081B010008E0
:100090001B0100081B0100081B0100081B010008D0
:1000A0001B0100081B0100081B0100081B010008C0
:1000B000510D0008690F0008000000001B01000836
:1000C0001B01000800000000000000001B010008E8
:1000D000000000001B0100081B01000800000000D8
:1000E0001B0100081B0100081B010008DFF80CD0F1
:1000F00000F068F800480047B11A000878040020B2
:100100000648804706480047FEE7FEE7FEE7FEE7B1
:10011000FEE7FEE7FEE7FEE7FEE7FEE7E90C000884
:10012000ED0000082DE9F05F0546002092469B4651
:1001300088460646814640241BE0284641464746FD
:10014000224600F02FF853465A46C01A914110D368
:1001500011461846224600F016F82D1A67EB0108E2
:100160004F4622460120002100F00DF817EB000950
:100170004E41201EA4F10104DFDC484631462A46E8
:100180004346BDE8F09F202A04DB203A00FA02F142
:10019000002070479140C2F1200320FA03F3194375
:1001A00090407047202A04DB203A21FA02F0002117
:1001B000704721FA02F3D040C2F120029140084377
:1001C000194670471CB5094800900948019005463A
:1001D000009C06E0E06840F0010394E807009847BF
:1001E0001034AC42F6D3FFF785FF0000D01F0008A3
:1001F000F01F000888B00790069100200590049039
:1002000003900290019000900698C07800F00F00D3
:1002100005900698C078C006002806D5FFE7069826
:100220008178059808430590FFE706980078002834
:100230004BD0FFE707980068019000200390FFE78C
:10024000039807283DD8FFE70399012088400290D2
:100250000698008802990840049004980299884200
:100260002AD1FFE703988000029002990F2088406E
:10027000009000990198884301900598029900FA2E
:1002800001F10198084301900698C078282806D10A
:10029000FFE7039901208840079948610BE0069821
:1002A000C078482806D1FFE70399012088400799C4
:1002B0000861FFE7FFE7FFE7FFE7039801300390DE
:1002C000BEE7019807990860FFE706980088B0F537
:1002D000807F50DBFFE70798406801900020039083
:1002E000FFE70398072842D8FFE7039800F10801C9
:1002F00001208840029006980088029908400490E6
:100300000498029988422DD1FFE70398800002905B
:1003100002990F208840009000990198884301902D
:100320000598029900FA01F1019808430190069896
:10033000C078282808D1FFE7039800F108010120C0
:10034000884007994861FFE70698C078482808D197
:10035000FFE7039800F10801012088400799086130
:10036000FFE7FFE7FFE7039801300390B9E7019843
:1003700007994860FFE708B07047000082B001901D
:10038000ADF8021000208DF8010001988068BDF8DA
:100390000210084204D0FFE701208DF8010003E0BD
:1003A00000208DF80100FFE79DF8010002B07047C2
:1003B00082B00190ADF8021000208DF80100019884
:1003C000C068BDF80210084204D0FFE701208DF894
:1003D000010003E000208DF80100FFE79DF8010017
:1003E00002B0704782B00190ADF80210BDF8020073
:1003F0000199486102B0704782B00190ADF80210D7
:10040000BDF802000199086102B0704780B582B062
:100410000190ADF802100198BDF80210FFF7C8FF77
:1004200030B1FFE70198BDF80210FFF7DBFF05E0F0
:100430000198BDF80210FFF7DFFFFFE702B080BDB3
:1004400082B00190ADF802108DF801209DF80100F6
:1004500028B1FFE7BDF802000199086104E0BDF88A
:10046000020001994861FFE702B0704784B0039031
:100470000020029001900F2000900398C078B8B33C
:10048000FFE74EF60C50CEF200000068C043C0F308
:10049000022002900298C0F1040001900098029995
:1004A000C8400090039840780199884002900398D2
:1004B0008078009901400298084302900298000158
:1004C00002900298039909784EF20042CEF200029F
:1004D00088540398027802F01F01012088401C21F3
:1004E00001EAD2014EF20012CEF2000288500EE074
:1004F0000398027802F01F01012088401C2101EAC4
:10050000D2014EF28012CEF200028850FFE704B012
:100510007047000081B0009000980021C0F2FA51AD
:1005200008434EF60C51CEF20001086001B070474E
:1005300081B08DF803009DF803002021C4F20E2144
:10054000086001B07047000082B001908DF8031080
:100550009DF8030048B1FFE7019A41F21C01C4F283
:10056000020108681043086008E0019A41F21C018A
:10057000C4F20201086890430860FFE702B07047C8
:1005800082B001908DF803109DF8030048B1FFE799
:10059000019A41F21801C4F2020108681043086090
:1005A00008E0019A41F21801C4F202010868904380
:1005B0000860FFE702B0704782B08DF8070041F293
:1005C0002001C4F202010020087008709DF80700A5
:1005D00001460091012804D0FFE70098042807D0C5
:1005E0000DE041F22001C4F202010120087007E091
:1005F00041F22001C4F202010520087000E0FFE78B
:1006000002B0704781B08DF803009DF8030040F2FE
:100610003C41C4F24221086001B0704781B00090B3
:10062000009A41F22001C4F20201086810430860F8
:1006300001B0704781B0ADF80200BDF8022042F66B
:100640000401C4F2000108889043088001B070479B
:1006500042F60401C4F20001088840F0100008804E
:100660007047000042F60401C4F20001088820F03F
:10067000100008807047000083B00020ADF806002D
:10068000ADF80400ADF8020042F61800C4F2000014
:100690000188ADF8061042F61C01C4F20001098879
:1006A000ADF802100088ADF80400BDF80600BDF8F2
:1006B000041088420BD0FFE7BDF8041042F61C007E
:1006C000C4F20000008840EA0140029007E0BDF853
:1006D0000610BDF8020040EA01400290FFE70298D0
:1006E00003B0704780B596B01590149100230B931A
:1006F0000A93099308930793069305930393029330
:100700000193009315984AF6C001084444F207513A
:10071000CCF22E21A0FB010147F61730C0F24A00AF
:1007200000EBD13003930290029803995FEA5101E4
:100730004FEA30000191009015981390139848F6F5
:100740008901C8F68801A0FB012040091290139886
:10075000129AC2EB0212A0EB82000590129813903D
:100760001398A0FB01104009129013981299C1EB45
:100770000111A0EB810006901298139013984AF68D
:10078000AB21CAF6AA21A0FB011000091290139810
:10079000129901EB4101A0EBC1000790009801996B
:1007A0000722FFF7BFFC0992009847F62C51084436
:1007B000119011988000033040F2BD61C3F66B11B7
:1007C000A0FB0110C00B10901198109943F6B122B4
:1007D000C0F202025143A0EB91000F900F988000ED
:1007E00003304BF27301C1F26D61A0FB0110C0092F
:1007F0000E900F980E9940F2B5525143A0EB910024
:100800000D900D9800EB8000023048F2D701CDF238
:100810002B61A0FB0110C0090C900D980C99992236
:10082000514302314CF6CD42CCF6CC42A1FB023111
:10083000A0EB9100013008900C98A0FB0231C90890
:1008400001EB4101A0EB810003300A9010980E9B50
:10085000642100FB01300C99A1FB022100EBD100C7
:10086000A0F596500B900B981499C8800A9814998B
:10087000487108981499C8700798149908700698D8
:1008800014994870059814998870099814990871FA
:1008900016B080BD81B0ADF8020000208DF80100D7
:1008A00042F60400C4F200000088BDF802100840BF
:1008B0008DF8010042F60000C4F200000088BDF887
:1008C00002100840000440B1FFE79DF8010020B18C
:1008D000FFE701208DF8010003E000208DF8010002
:1008E000FFE79DF8010001B07047000084B003905D
:1008F00003984079C0F10E004AF6AB21C2F6AA2156
:1009000080FB0101480800EBD1708DF80B000398C3
:10091000C0889DF80B10401A00F59650ADF80800FD
:10092000039840799DF80B1001EB410100EB810029
:1009300003388DF807000398C07800909DF80700F1
:1009400099214843023043F23431C3F23331A0FBE2
:100950000101009808440090BDF80800009A40F298
:100960006D1100FB01200090BDF80810009800EB0D
:1009700091000090BDF80800404248F21F51C5F2B6
:10098000EB1180FB0101481100EBD1710098084484
:100990000090BDF808004DF20B71C0F2A301A0FB5E
:1009A0000101009808440090009847F62D51401A24
:1009B000009000984CF27421CFF6DA710844009050
:1009C000009845F28011C0F201014843009003985D
:1009D0000078009A4FF4616100FB012000900398B9
:1009E0004078C0EB0011009800EB81000090039864
:1009F0008178009808440090009804B07047000087
:100A000080B50120FFF746FFE0B1FFE70120FFF7C7
:100A100011FE40F20000C2F200000078012808D167
:100A2000FFE740F60000C4F201000821FFF7EEFCEA
:100A300007E040F60000C4F201000821FFF7DCFCEB
:100A4000FFE7FFE700F050F880BD000081B0ADF88F
:100A500002008DF801109DF8010050B1FFE7BDF8CC
:100A6000022042F60001C4F2000108881043088009
:100A700009E0BDF8022042F60001C4F20001088836
:100A800090430880FFE701B07047000080B582B056
:100A90000190FFF7DDFDBDF8060042F61801C4F233
:100AA00000010880019842F61C01C4F20001088090
:100AB000FFF7D8FD02B080BD80B582B00190FFF78E
:100AC000C7FD0198C0F3034042F60801C4F20001DB
:100AD0000880019842F60C01C4F200010880FFF77B
:100AE000C1FD02B080BD0000FFE742F60400C4F281
:100AF000000000888006002801D4FFE7F5E7704772
:100B000042F60401C4F20001088820F008000880C1
:100B1000FFE742F60400C4F2000000880007002846
:100B200001D4FFE7F5E7704780B584B04FF0C050BF
:100B300001210191FFF708FD0198FFF7F9FC0198E9
:100B4000FFF73AFD4FF48070FFF768FD0198FFF75B
:100B500059FDFFF7D5FFFFF7C7FF01990846FFF7DB
:100B600075FFFFF7C1FFFFF773FD47F6FF70FFF753
:100B7000A3FFFFF7B9FFFFF775FD019803218DF87B
:100B80000C1000218DF80D108DF80E108DF80F004F
:100B900003A8FFF76BFC0820ADF8080010208DF8C3
:100BA0000B0002208DF80A0040F60000C4F201009C
:100BB00002A9FFF71FFB04B080BD000080B500F064
:100BC00001F880BD84B000200390029041F2000142
:100BD000C4F20201086840F480300860FFE741F287
:100BE0000000C4F20200006800F400300290039894
:100BF00001300390FFE702990020019039B9FFE727
:100C00000398B0F5A06018BF01200190FFE701989C
:100C1000C0070028E3D1FFE741F20000C4F2020060
:100C200000688003002803D5FFE70120029002E05E
:100C300000200290FFE70298012851D1FFE742F21D
:100C40000001C4F20201086840F010000860086862
:100C500020F007000860086840F00200086041F2D8
:100C60000401C4F202010091086808600868086085
:100C7000086840F480600860086820F47C10086010
:100C8000086840F4E810086041F20001C4F2020173
:100C9000086840F080700860FFE741F20000C4F28D
:100CA000020000688001002801D4FFE7F5E741F267
:100CB0000401C4F20201086820F00300086008681B
:100CC00040F002000860FFE741F20400C4F20200B5
:100CD000006800F00C00082801D0FFE7F4E700E00E
:100CE000FFE704B07047000080B541F20002C4F293
:100CF0000202106840F00100106041F20401C4F2E9
:100D0000020108680023CFF6FF031840086010684E
:100D10004FF6FF73CFF6F66318401060106820F4AA
:100D200080201060086820F4FE00086041F208018D
:100D3000C4F202014FF41F000860FFF73FFF4EF6B8
:100D40000851CEF200014FF00060086080BD000045
:100D500080B586B040F26402C2F20002049240F212
:100D60006E03C2F2000340F60000C4F201000390DB
:100D7000012100F0D7FB0398049A40F26D03C2F200
:100D80000003022100F0CEFB0398049A40F26F03A7
:100D9000C2F20003102100F0C5FB0398049A40F250
:100DA0006C03C2F20003042100F0BCFB40F200001F
:100DB000C2F200000078013801460591042800F2D3
:100DC000CB800599DFE801F003111F29C10040F233
:100DD0005C01C2F2000148788A78642100FB01209E
:100DE00000F02AFF00F004FCB6E040F25C01C2F221
:100DF0000001C8784A79642100FB012000F01CFF43
:100E000000F0F6FBA8E040F25C00C2F20000C088EF
:100E100000F012FF00F0ECFB9EE040F27000C2F226
:100E20000000006865280BDBFFE740F27000C2F2AB
:100E30000000006800EB8000400000F0FDFE7CE058
:100E400040F27000C2F200000068632812DCFFE785
:100E500040F27000C2F20000006801280ADBFFE7E0
:100E600040F27000C2F2000000686421484300F0C4
:100E7000E3FE61E040F27000C2F200000068B0F1F1
:100E8000FF3F14DCFFE740F27000C2F20000006890
:100E900010F1090F0BDBFFE740F27000C2F2000017
:100EA00000686FF06301484300F0C6FE43E040F283
:100EB0007000C2F20000006810F10B0F14DCFFE7B5
:100EC00040F27000C2F20000006810F1630F0BDB0B
:100ED000FFE740F27000C2F2000000686FF06301AB
:100EE000484300F0A9FE25E040F27000C2F2000085
:100EF000006810F1650F0CDCFFE740F27000C2F2F1
:100F00000000006800EB80004042400000F094FECA
:100F10000FE040F27000C2F200000068019000286B
:100F2000029002D5019840420290029800F084FE9F
:100F3000FFE7FFE7FFE7FFE7FFE740F27000C2F2DD
:100F40000000006800F0CEFB06E040F20001C2F2B3
:100F5000000101200870FFE74FF08040012100F000
:100F600091F906B080BD000080B584B040F26E00FB
:100F7000C2F200000078022811D0FFE740F26D00B5
:100F8000C2F200000078022809D0FFE740F26C00AE
:100F9000C2F200000078022840F06281FFE740F2D0
:100FA0002C41C4F2000144F25060088040F26E000F
:100FB000C2F200000078022841D1FFE740F26F0042
:100FC000C2F200000078022839D1FFE740F20000A9
:100FD000C2F20000007801380146039104282DD8A0
:100FE0000399DFE801F003111D292A0040F25C009B
:100FF000C2F2000001780131017000218170FFF719
:1010000075FCFFF743FD19E040F25C00C2F20000FE
:10101000C1780131C170FFF769FCFFF737FD0DE0C2
:1010200040F25C00C2F20000C1880131C180FFF7CC
:101030005DFCFFF72BFD01E000E0FFE70FE140F270
:101040006D00C2F200000078022852D1FFE740F2A2
:101050006F00C2F20000007802284AD1FFE740F298
:101060000000C2F200000078013801460291042815
:101070003ED80299DFE801F003222E3A3B0040F20D
:101080005C00C2F20000007848B9FFE740F25C0162
:10109000C2F2000117200870002088700DE040F2B5
:1010A0005C00C2F2000001780139017000218170FA
:1010B000FFF71CFCFFF7EAFCFFE719E040F25C00D9
:1010C000C2F20000C1780139C170FFF70FFCFFF7D1
:1010D000DDFC0DE040F25C00C2F20000C188013985
:1010E000C180FFF703FCFFF7D1FC01E000E0FFE760
:1010F000B4E040F26E00C2F200000078022841D154
:10110000FFE740F26F00C2F200000078002839D1FA
:10111000FFE740F20000C2F200000078013801460B
:10112000019104282DD80199DFE801F003111D2950
:101130002A0040F25C00C2F20000417801314170A7
:1011400000218170FFF7D2FBFFF7A0FC19E040F20D
:101150005C00C2F20000417901314171FFF7C6FB2A
:10116000FFF794FC0DE040F25C00C2F20000C18881
:101170000131C180FFF7BAFBFFF788FC01E000E016
:10118000FFE76AE040F26D00C2F20000007802283A
:1011900041D1FFE740F26F00C2F200000078002862
:1011A00039D1FFE740F20000C2F2000000780138B8
:1011B0000146009104282DD80099DFE801F00311C1
:1011C0001D292A0040F25C00C2F20000417801397A
:1011D000417000218170FFF789FBFFF757FC19E090
:1011E00040F25C00C2F20000417901394171FFF721
:1011F0007DFBFFF74BFC0DE040F25C00C2F200000B
:10120000C1880139C180FFF771FBFFF73FFC01E0A6
:1012100000E0FFE720E040F26C00C2F2000000783E
:10122000022818D1FFE740F20000C2F20000007867
:10123000052807DBFFE740F20001C2F200010120B0
:10124000087007E040F20001C2F2000108780130A6
:101250000870FFE7FFE7FFE7FFE7FFE7FFE707E0CB
:1012600040F22C41C4F2000140F2DC500880FFE75C
:1012700040F20040C4F20000012100F003F804B085
:1012800080BD000082B00190ADF80210BDF80200F0
:10129000C0430199088202B07047000082B00190FB
:1012A0008DF803109DF8030030B1FFE7019908881D
:1012B00040F00100088005E00199088820F0010055
:1012C0000880FFE702B0704782B00190ADF80210CD
:1012D0008DF801209DF8010038B1FFE7BDF802202C
:1012E000019988891043888106E0BDF802200199A0
:1012F000888990438881FFE702B0704783B00290ED
:1013000001910020ADF8020002980088ADF80200BB
:10131000029842F60041C4F20101884225D0FFE75D
:10132000029843F20041C4F2010188421DD0FFE758
:101330000298B0F1804F18D0FFE7029840F20041C8
:10134000C4F20001884210D0FFE7029840F6000185
:10135000C4F20001884208D0FFE7029840F600413D
:10136000C4F2000188420ED1FFE7BDF8020020F070
:101370007000ADF8020001984188BDF802000843F2
:10138000ADF80200FFE7029841F20001C4F200014B
:10139000884216D0FFE7029841F20041C4F20001F2
:1013A00088420ED0FFE7BDF8020020F44070ADF88F
:1013B00002000198C188BDF802000843ADF80200A0
:1013C000FFE7BDF802000299088001988088029921
:1013D00088850198008802990885029842F60041A4
:1013E000C4F20101884220D0FFE7029843F2004195
:1013F000C4F20101884218D0FFE7029844F20001CC
:10140000C4F20101884210D0FFE7029844F2004183
:10141000C4F20101884208D0FFE7029844F60001B7
:10142000C4F20101884205D1FFE70198007A0299D0
:101430000886FFE702990120888203B07047000008
:1014400081B0009000994FF6FF70888000990020CD
:1014500008800099C880009948800099087201B0FE
:101460007047000081B08DF803009DF9030000284B
:101470000ED4FFE79DF9031001F01F0201209040F8
:101480004A094EF20011CEF2000141F82200FFE7B6
:1014900001B0704786B0059004918DF80F209DF83B
:1014A0000F0001380290FFE70298002809D4FFE7F7
:1014B0000499029A00208854FFE7029801380290AC
:1014C000F2E79DF80F0001380190FFE70199002035
:1014D0000029009006D4FFE70598002818BF0120D6
:1014E0000090FFE70098C007C8B1FFE705984CF6E9
:1014F000CD41CCF6CC41A0FB0132D20802EB8202F6
:10150000A0EB4200049A019BD0540598A0FB011067
:10151000C0080590FFE7019801380190D6E706B0B2
:101520007047000080B584B00390ADF80A100192B6
:10153000009301998888C988884232D1FFE70199D0
:10154000002088800398BDF80A10FEF717FF98B9AD
:10155000FFE70098007820B9FFE7009901200870A4
:1015600009E000980078012804D1FFE700990220E3
:101570000870FFE7FFE713E000980078012804D126
:10158000FFE700990020087009E000980078022821
:1015900004D1FFE7009901200870FFE7FFE7FFE7AC
:1015A00004E00199888801308880FFE704B080BD9D
:1015B00083B0029000200190FFE7019802998842D1
:1015C00013D2FFE700200090FFE7009845F6BF51D7
:1015D000884205D8FFE7FFE7009801300090F4E764
:1015E000FFE7019801300190E7E703B07047000082
:1015F00080B586B040F20100C2F2000000780138E8
:1016000001460591032858D80599DFE801F0021733
:101610002D4240F60040C4F2010004900121FEF783
:10162000EBFE04984FF40061FEF7DCFE40F254003C
:10163000C2F20000007800F089FB3EE040F6004076
:10164000C4F2010003904FF40061FEF7D5FE039849
:101650004FF48061FEF7C6FE40F25400C2F2000073
:10166000407800F073FB28E040F60040C4F201002F
:1016700002904FF48061FEF7BFFE02980221FEF750
:10168000B1FE40F25400C2F20000807800F05EFB30
:1016900013E040F60040C4F2010001900221FEF781
:1016A000ABFE01980121FEF79DFE40F25400C2F20C
:1016B0000000C07800F04AFBFFE740F20100C2F2F0
:1016C00000000178013101700078052807DBFFE791
:1016D00040F20101C2F2000101200870FFE706B0EC
:1016E00080BD000080B586B0059040F20100C2F2D6
:1016F00000000078013801460491032800F2F480CC
:101700000499DFE801F0024286C840F60040C4F2C6
:10171000010003900121FEF76FFE03984FF4006172
:10172000FEF760FE059863280CDCFFE705980128AA
:1017300008DBFFE740F25400C2F20000007800F03E
:101740007FFB21E00598B0F1FF3F03DCFFE700F0ED
:1017500081FA18E0059809280CDCFFE705980128B4
:1017600008DBFFE740F25400C2F20000007800F00E
:1017700067FB07E040F25400C2F20000007800F07E
:10178000E5FAFFE7FFE7FFE7AEE040F60040C4F20E
:10179000010002904FF40061FEF72EFE02984FF414
:1017A0008061FEF71FFE0598652808DBFFE740F221
:1017B0005400C2F20000407800F042FB28E0059897
:1017C000B0F1FF3F0DDCFFE7059810F1630F08DB78
:1017D000FFE740F25400C2F20000007800F030FB56
:1017E00015E0059810F1650F08DCFFE740F25400A2
:1017F000C2F20000007800F0A9FA07E040F25400BD
:10180000C2F20000407800F0A1FAFFE7FFE7FFE72F
:101810006AE040F60040C4F2010001904FF480619C
:10182000FEF7EAFD01980221FEF7DCFD0598B0F114
:10183000FF3F0DDCFFE7059810F1630F08DBFFE7C2
:1018400040F25400C2F20000407800F07FFA21E03C
:10185000059810F1650F08DCFFE740F25400C2F272
:101860000000407800F0ECFA13E00598632807DCEC
:10187000FFE70598002803D4FFE700F05BFB07E0D3
:1018800040F25400C2F20000807800F05FFAFFE7F7
:10189000FFE7FFE728E040F60040C4F201000090B7
:1018A0000221FEF7A9FD00980121FEF79BFD059896
:1018B00010F1650F08DCFFE740F25400C2F20000AF
:1018C000807800F043FA0EE00598012807DBFFE777
:1018D0000598632803DCFFE700F0FAF902E000F066
:1018E00029FBFFE7FFE7FFE740F20100C2F200003B
:1018F0000178013101700078052807DBFFE740F22D
:101900000101C2F2000101200870FFE706B080BDAE
:1019100080B58CB00820029001210891FEF730FEBE
:10192000089904200190FEF72BFE01980899FEF714
:1019300027FE01980899FEF723FE02980899FEF702
:101940001FFE02980899FEF71BFE02980899FEF701
:1019500017FE01980899FEF713FE02980899FEF702
:101960000FFE02980899FEF70BFE4FF48040ADF889
:101970002C0010208DF82F00022007908DF82E00EB
:1019800040F60040C4F2010009900BA90A91FEF74D
:1019900031FC0A994FF480600690ADF82C0040F6B7
:1019A0000000C4F201000490FEF724FC04980A9998
:1019B0004FF480520392ADF82C20FEF71BFC0498E4
:1019C0000A994FF48072ADF82C20FEF713FC0998A9
:1019D0000A994FF40042ADF82C20FEF70BFC099851
:1019E0000A994FF40052ADF82C20FEF703FC039A3D
:1019F00009980A99ADF82C20FEF7FCFB04980A9987
:101A00004FF400620592ADF82C20FEF7F3FB059A27
:101A100009980A99ADF82C20FEF7ECFB069A099874
:101A20000A99ADF82C20FEF7E5FB079A09980A9968
:101A3000ADF82C20FEF7DEFB089A09980A99ADF85C
:101A40002C20FEF7D7FB0CB080BD000080B586B01F
:101A50000420029001210091FEF792FD0098482198
:101A60008DF81710ADF81400022001908DF81600C3
:101A700040F60000C4F20100039005A90491FEF7AE
:101A8000B9FB019A03980499ADF81420FEF7B2FB54
:101A9000029A03980499ADF81420FEF7ABFB039863
:101AA00004991022ADF81420FEF7A4FB06B080BD07
:101AB00080B584B0002001900390FFF729FF00F06B
:101AC0003DF800F079F8FFF7C1FFFFF72DF8019816
:101AD00040F26402C2F200020A21118032235380D4
:101AE0009080D18040F25C01C2F200010291162286
:101AF000CA7009224A714FF4FC62CA800E220A7031
:101B00001E224A7088704FF4FA70FFF751FD029858
:101B1000FEF7ECFEFEF7BAFFFFE7FEF7ADFD01466C
:101B200040F25800C2F200000160006840F25C011F
:101B3000C2F20001FEF7D6FDEFE7000080B588B0E5
:101B4000012103910846FEF7FFFC0DF116000090FD
:101B5000FFF776FC009940F2CF20ADF816004FF465
:101B60009670ADF81A004FF080400190FFF7C6FB69
:101B70000198039A1146FFF7A7FB01980399FFF715
:101B80008DFB1C200290FFF76DFC4FF4E060FEF728
:101B9000C1FC029903988DF8121000218DF81310E2
:101BA00004218DF814108DF815000DF11200FEF7C8
:101BB0005DFC08B080BD000080B588B00220012126
:101BC0000391FEF7C1FC0DF116000090FFF738FC01
:101BD000009940F2CF20ADF8160040F2DC50ADF88D
:101BE0001A0040F20040C4F200000190FFF786FBAB
:101BF0000198039A1146FFF767FB01980399FFF7D5
:101C00004DFB1D200290FFF72DFC4FF4E060FEF726
:101C100081FC029903988DF8121000218DF81310A1
:101C200003218DF814108DF815000DF11200FEF748
:101C30001DFC08B080BD000080B582B00190019805
:101C400040F25401C2F200010422FFF723FC02B06B
:101C500080BD000080B584B040F60040C4F20100B1
:101C600000904FF4804101220392FEF7E9FB039AB2
:101C700040F60000C4F2010002904FF48061FEF7CC
:101C8000DFFB0298039A4FF480510191FEF7D8FBD5
:101C90000298039A4FF48071FEF7D2FB0098039AE2
:101CA0004FF40041FEF7CCFB0098039A4FF400512B
:101CB000FEF7C6FB009801990022FEF7C1FB0298CF
:101CC000039A4FF40061FEF7BBFB04B080BD000037
:101CD00080B584B040F60040C4F2010000904FF49B
:101CE000804101220392FEF7ABFB039A40F600000D
:101CF000C4F2010002904FF48061FEF7A1FB02984C
:101D0000039A4FF480510191FEF79AFB0298039ACF
:101D10004FF48071FEF794FB0098039A4FF4004152
:101D2000FEF78EFB0098039A4FF40051FEF788FBF4
:101D300000980199039AFEF783FB0298039A4FF4E7
:101D40000061FEF77DFB04B080BD000080B586B069
:101D50008DF817009DF8171040F20400C2F2000041
:101D6000039050F82110012020EA010240F60040C3
:101D7000C4F2010001904FF48041FEF761FB03982B
:101D80009DF8171050F82100C043C0F3400240F600
:101D90000000C4F2010004904FF48061FEF750FB94
:101DA000039904989DF8172051F82210C943C1F3F4
:101DB00080024FF480510291FEF742FB0399049890
:101DC0009DF8172051F82210C943C1F3C0024FF407
:101DD0008071FEF735FB019803999DF8172051F8A3
:101DE0002210C943C1F300124FF40041FEF728FB53
:101DF000019803999DF8172051F82210C943C1F3A7
:101E000040124FF40051FEF71BFB01980299039A10
:101E10009DF8173052F82320D243C2F38012FEF708
:101E20000FFB039904989DF8172051F82210C9431D
:101E3000C9B2CA094FF40061FEF702FB06B080BDCB
:101E400080B586B08DF817009DF8171040F22C0071
:101E5000C2F20000039050F82110012020EA010294
:101E600040F60040C4F2010001904FF48041FEF7BB
:101E7000E7FA03989DF8171050F82100C043C0F30B
:101E8000400240F60000C4F2010004904FF480616B
:101E9000FEF7D6FA039904989DF8172051F82210FE
:101EA000C943C1F380024FF480510291FEF7C8FA92
:101EB000039904989DF8172051F82210C943C1F3E3
:101EC000C0024FF48071FEF7BBFA019803999DF8A8
:101ED000172051F82210C943C1F300124FF40041FA
:101EE000FEF7AEFA019803999DF8172051F82210D9
:101EF000C943C1F340124FF40051FEF7A1FA019813
:101F00000299039A9DF8173052F82320D243C2F366
:101F10008012FEF795FA039904989DF8172051F85E
:101F20002210C943C9B2CA094FF40061FEF788FA0A
:101F300006B080BD80B586B040F60040C4F2010016
:101F400001904FF4804100220392FEF779FA039A40
:101F500040F60000C4F2010004904FF48061FEF7E7
:101F60006FFA04984FF48051029101220592FEF716
:101F700067FA0498059A4FF48071FEF761FA0198A8
:101F8000059A4FF40041FEF75BFA0198039A4FF46B
:101F90000051FEF755FA01980299039AFEF750FA9C
:101FA0000498059A4FF40061FEF74AFA06B080BD26
:101FB00002E008C8121F08C1002AFAD17047704712
:101FC000002001E001C1121F002AFBD17047000070
:101FD000F01F00080000002058000000B01F00089B
:101FE000482000085800002020040000C01F0008FE
:101FF000010100003F000000060000005B0000003F
:102000004F000000660000006D0000007D00000031
:10201000070000007F0000006F000000BF0000000C
:1020200086000000DB000000CF000000E60000009A
:10203000ED000000FD00000087000000FF00000030
:08204000EF000000010203049F
:0400000508000101ED
:00000001FF
